:020000040800F2
:10000000002800201D16000861070008630700088B
:10001000650700086707000869070008000000007E
:100020000000000000000000000000006B07000856
:100030006D070008000000006F0700087107000846
:1000400065160008651600086516000865160008A4
:100050006516000865160008651600086516000894
:100060006516000865160008651600086516000884
:100070006516000865160008651600086516000874
:100080006516000865160008651600086516000864
:100090006516000865160008651600086516000854
:1000A0006516000865160008651600086516000844
:1000B00079070008651600080000000065160008B2
:1000C000651600080000000000000000651600082A
:1000D000000000006516000865160008000000001A
:1000E0006516000865160008651600080000000087
:1000F0000000000000000000000000000000000000
:0C01000000000000000000005FF808F1A3
:10010C000348044B834202D0034B03B1184770479A
:10011C004C0000204C000020000000000548064B5D
:10012C001B1AD90F01EBA301491002D0034B03B1E9
:10013C00184770474C0000204C00002000000000C5
:10014C0010B5064C237843B9FFF7DAFF044B13B113
:10015C000448AFF300800123237010BD4C00002035
:10016C0000000000C016000808B5054B1BB105497E
:10017C000548AFF30080BDE80840FFF7CFBF00BFD4
:10018C000000000050000020C01600082DE9F041CE
:10019C0086B000240294039404940594204B9A692D
:1001AC0042F004029A619A6902F004020092009AE9
:1001BC009A6942F008029A619B6903F00803019363
:1001CC00019B184E22462021304601F0A4F9164F0F
:1001DC0022467F21384601F09EF920230293012507
:1001EC00039504944FF00208CDF8148002A9304610
:1001FC0001F07AF84FF4E07302930394049502A98A
:10020C00304601F071F87F23029303950494CDF8E6
:10021C00148002A9384601F067F806B0BDE8F081F9
:10022C000010024000080140000C014008B500F02D
:10023C00E7F800F013F900F05DF900F0C5F800F0F4
:10024C00ABF808BD72B6FEE700B587B00023029389
:10025C000393049305930093019314484FF0804249
:10026C00026041F63F72426083600922C260036102
:10027C00836100F009FC90B94FF48053029302A9FA
:10028C000A4800F039FC60B90023009301936946D9
:10029C00064800F09FFC30B907B05DF804FBFFF78F
:1002AC00D1FFFFF7CFFFFFF7CDFF00BF6C000020A1
:1002BC0000B591B02822002106A801F0CEF9002348
:1002CC000193029303930493059302230693012352
:1002DC000A9310230B9306A800F010FD68B90F23A6
:1002EC0001930021029103910491059101A800F062
:1002FC0045FF20B911B05DF804FBFFF7A3FFFFF732
:10030C00A1FF00002DE9F04700F0BEFCFFF7D0FF85
:10031C00FFF73CFFFFF798FF184800F091FA13E045
:10032C002021174801F0FDF84A464146384600F0B6
:10033C0055F93146284600F09DF9204600F0DAF9CF
:10034C00104B186800F0F6F900F01EF8824600F029
:10035C0033F8044600F022F9074600F027F98046EE
:10036C0000F014F9814600F029F9054600F02EF949
:10037C000646BAF1000FD3D1D6E700BF6C000020BF
:10038C000008014068000020024B186800221A6027
:10039C00704700BFB8000020054A1368013B13608A
:1003AC002BB9044B01221A60014B64221A6070476E
:1003BC0000000020B8000020024B186800221A60D0
:1003CC00704700BFB4000020054A1368013B13605E
:1003DC002BB9044B01221A60014B64221A6070473E
:1003EC0004000020B4000020034B4FF47A721A6012
:1003FC00024B00221A60704704000020B400002059
:10040C0070B5104D104C23682B60104E3368236070
:10041C0040210F4801F078F830602A6823689A422E
:10042C0000D070BD9842FCD10A4B1B689A42F8D0A0
:10043C00084B1A60002AF4D1074B01221A60FFF70F
:10044C00D3FFEEE72000002014000020080000205D
:10045C000008014030000020CC00002070B51D4D7C
:10046C001D4C23682B601D4E3368236080211C4873
:10047C0001F04AF830602A6823689A4200D070BDB7
:10048C009842FCD1174B1B689A4210D0154B1A603E
:10049C001AB1154B00221A60F1E7144B4FF4967207
:1004AC001A60134B01221A60FFF79EFFE7E7002B3F
:1004BC00E5D1FFF799FF0D4B1B6833B90A4B0122AD
:1004CC001A600A4B64221A60D9E7013B074A136091
:1004DC00D5E700BF280000201C00002010000020E1
:1004EC000008014034000020C80000203C0000201F
:1004FC00C400002070B51D4D1D4C23682B601D4E93
:10050C00336823604FF480711B4800F0FDFF3060AE
:10051C002A6823689A4200D070BD9842FCD1174BD0
:10052C001B689A4210D0154B1A601AB1144B00225A
:10053C001A60F1E7134B4FF496721A60124B0122BA
:10054C001A60FFF751FFE7E7002BE5D1FFF74CFFEF
:10055C000C4B1B6833B90A4B01221A60094B6422FD
:10056C001A60D9E7013B074A1360D5E72400002045
:10057C00180000200C000020000801402C00002076
:10058C00C000002038000020BC000020024B18687E
:10059C0000221A60704700BFCC000020024B186884
:1005AC0000221A60704700BFC4000020024B18687C
:1005BC0000221A60704700BFBC000020024B186874
:1005CC0000221A60704700BFC8000020024B186858
:1005DC0000221A60704700BFC0000020224B1B781D
:1005EC00032B3DD8DFE803F00212243618B11E4B62
:1005FC0001221A70704719B11B4B02221A707047F6
:10060C00002A30D0184B03221A7070471748026822
:10061C000132174981FB0231D317C3EBA10303EB62
:10062C008303A2EB430303600F4B00221A70704745
:10063C000E48026809320E4981FB0231D317C3EB15
:10064C00A10303EB8303A2EB43030360064B0022DD
:10065C001A7070470023054A1360034A13707047E1
:10066C00014B00221A707047D20000206800002055
:10067C00676666661C4B1B78012B11D0022B21D0B0
:10068C001BB1194B00221A70704718B1164B01227E
:10069C001A7070470029F7D0134B02221A7070475A
:1006AC00124802680132124981FB0231D317C3EBA5
:1006BC00A10303EB8303A2EB430303600A4B002269
:1006CC001A707047094802680932094981FB0231E6
:1006DC00D317C3EBA10303EB8303A2EB4303036028
:1006EC00014B00221A707047D100002068000020D6
:1006FC00676666660D4B1B782BB1012B0DD00B4B2F
:10070C0000221A7070470028FCD0094B1B68002B84
:10071C00F8DD064B01221A707047054A1368013B3D
:10072C001360024B00221A70704700BFD0000020EB
:10073C0068000020054B33F81020D3431B0403F44E
:10074C00FE031A43024B1A61704700BFD81600080B
:10075C00000C0140FEE7FEE7FEE7FEE7FEE7704710
:10076C007047704708B500F0A1FA08BD08B50248FB
:10077C0000F09AF808BD00BF6C00002082B00A4B54
:10078C009A6942F001029A619A6902F001020092A0
:10079C00009ADA6942F08052DA61DB6903F0805327
:1007AC000193019B02B07047001002400368B3F143
:1007BC00804F00D0704700B583B003F50433DA697D
:1007CC0042F00102DA61DB6903F001030193019B42
:1007DC00002211461C2000F0BFFE1C2000F0F4FE8D
:1007EC0003B05DF804FB10B4036A046A24F001043E
:1007FC000462846924F0F00C4CEA021223F00A0320
:10080C000B438261036210BC704710B4036A23F07F
:10081C00100303628469036A24F4704C4CEA0232BC
:10082C0023F0A00343EA01138261036210BC7047FA
:10083C00836823F070030B4343F007038360704716
:10084C0090F83D30DBB2012B23D1022380F83D30F0
:10085C000268D36843F00103D36003680F4A9342E4
:10086C000CD0B3F1804F09D0A2F59432934205D04D
:10087C001A6842F001021A60002070479A6802F070
:10088C000702062A07D01A6842F001021A600020FB
:10089C007047012070470020704700BF002C0140BA
:1008AC00704770477047704710B5044603681A6963
:1008BC0012F0020F11D0DA6812F0020F0DD06FF0A7
:1008CC0002021A610123037703689B6913F0030F7B
:1008DC0070D0FFF7E6FF0023237723681A6912F024
:1008EC00040F12D0DA6812F0040F0ED06FF004026D
:1008FC001A610223237723689B6913F4407F5FD02E
:10090C002046FFF7CEFF0023237723681A6912F0E5
:10091C00080F12D0DA6812F0080F0ED06FF0080230
:10092C001A61042323772368DB6913F0030F4ED07D
:10093C002046FFF7B6FF0023237723681A6912F0CD
:10094C00100F12D0DA6812F0100F0ED06FF01002E8
:10095C001A61082323772368DB6913F4407F3DD0A9
:10096C002046FFF79EFF0023237723681A6912F0B5
:10097C00010F03D0DA6812F0010F36D123681A691F
:10098C0012F0800F03D0DA6812F0800F34D1236894
:10099C001A6912F0400F03D0DA6812F0400F32D10E
:1009AC0023681A6912F0200F03D0DA6812F0200FB6
:1009BC0030D110BDFFF774FF2046FFF773FF8AE7B5
:1009CC002046FFF76DFF2046FFF76CFF9BE72046A4
:1009DC00FFF766FF2046FFF765FFACE72046FFF701
:1009EC005FFF2046FFF75EFFBDE76FF001021A6163
:1009FC002046FFF71BFCC1E76FF080021A6120460E
:100A0C0000F01BF9C3E76FF040021A612046FFF7B4
:100A1C004AFFC5E76FF020021A61204600F00CF97E
:100A2C00C7E700000368174A904206D0B0F1804F28
:100A3C0003D0A2F59432904203D123F070034A689C
:100A4C001343104A904206D0B0F1804F03D0A2F568
:100A5C009432904203D123F44073CA68134323F0B9
:100A6C0080034A69134303608B68C3620B6883621B
:100A7C00044B984202D00123436170470B69036316
:100A8C00F9E700BF002C014040B310B5044690F8C4
:100A9C003D30F3B1022384F83D30214651F8040B6C
:100AAC00FFF7C0FF012384F8463084F83E3084F809
:100ABC003F3084F8403084F8413084F8423084F878
:100ACC00433084F8443084F8453084F83D300020BD
:100ADC0010BD80F83C30FFF769FEDBE70120704762
:100AEC0010B4846824F47F4C42EA03220A4342EA9D
:100AFC000C02826010BC704790F83C30012B66D021
:100B0C0010B50446012380F83C30022380F83D30B8
:100B1C000268936823F47F4323F0770393600B6898
:100B2C00602B40D022D8402B47D00BD9502B0ED164
:100B3C00CA6849680068FFF756FE50212068FFF725
:100B4C0077FE04E0202B0CD008D9302B09D00123E0
:100B5C0084F83D30002084F83C0010BD0BB1102B04
:100B6C00F5D119462068FFF763FEF0E7702B0ED025
:100B7C00B3F5005FEBD1CB684A6889680068FFF772
:100B8C00AFFF2268936843F480439360DFE7CB6840
:100B9C004A6889680068FFF7A3FF2268936843F0EE
:100BAC0077039360D3E7CA6849680068FFF72DFEA6
:100BBC0060212068FFF73CFEC9E7CA6849680068F5
:100BCC00FFF711FE40212068FFF732FEBFE702203D
:100BDC007047000090F83C20012A28D010B403463E
:100BEC00012280F83C20022280F83D2002685068E7
:100BFC00946820F0700C086840EA0C0050601A6889
:100C0C000C48824206D0B2F1804F03D0A0F594304C
:100C1C00824204D124F0800449682143916001226E
:100C2C0083F83D20002083F83C0010BC7047022064
:100C3C00704700BF002C01407047704710B5044648
:100C4C000E4B1A784FF47A73B3FBF2F30C4A10681C
:100C5C00B0FBF3F000F0C6FC68B90F2C01D90120F1
:100C6C000AE0002221464FF0FF3000F075FC054BE6
:100C7C001C60002000E0012010BD00BF40000020DF
:100C8C00480000204400002008B5074A136843F0D0
:100C9C0010031360032000F04DFC0F20FFF7CEFF74
:100CAC00FFF76CFD002008BD00200240034A1168CC
:100CBC00034B1B780B441360704700BFD40000201B
:100CCC0040000020014B1868704700BFD400002082
:100CDC0082B0084B1B68084AA2FB03235B0A00FB8B
:100CEC0003F3019300BF019B5A1E0192002BF9D113
:100CFC0002B0704748000020D34D6210002800F06D
:100D0C00F18170B582B00446036813F0010F2CD04A
:100D1C00994B5B6803F00C03042B1DD0964B5B685E
:100D2C0003F00C03082B12D06368B3F5803F41D05D
:100D3C00002B55D103F1804303F504331A6822F4D8
:100D4C0080321A601A6822F480221A6037E08A4BCB
:100D5C005B6813F4803FE7D0874B1B6813F4003FAC
:100D6C0003D06368002B00F0BF81236813F0020FDF
:100D7C0075D0814B5B6813F00C0F5FD07E4B5B68BA
:100D8C0003F00C03082B54D02369002B00F08A804D
:100D9C007A4B01221A60FFF795FF0546764B1B68CC
:100DAC0013F0020F75D1FFF78DFF401B0228F5D908
:100DBC0003209EE1704A136843F480331360636828
:100DCC0043B3FFF77FFF05466B4B1B6813F4003FE3
:100DDC00CBD1FFF777FF401B6428F5D9032088E1BE
:100DEC00B3F5A02F09D0644B1A6822F480321A6034
:100DFC001A6822F480221A60E1E703F18043A3F51C
:100E0C003C331A6842F480221A601A6842F4803229
:100E1C001A60D4E7FFF756FF0546574B1B6813F4CF
:100E2C00003FA2D0FFF74EFF401B6428F5D90320EA
:100E3C005FE1514B5B6813F4803FA5D14E4B1B68AF
:100E4C0013F0020F03D02369012B40F04F814A4A63
:100E5C00136823F0F803616943EAC1031360236844
:100E6C0013F0080F33D0A369002B5CD0434B012245
:100E7C00C3F88024FFF726FF05463F4B5B6A13F04F
:100E8C00020F21D1FFF71EFF401B0228F5D90320CA
:100E9C002FE1394A136823F0F803616943EAC1036F
:100EAC001360DCE7354B00221A60FFF70BFF054699
:100EBC00314B1B6813F0020FD1D0FFF703FF401B1F
:100ECC000228F5D9032014E10120FFF701FF236864
:100EDC0013F0040F00F09680274BDB6913F0805F52
:100EEC0034D1254BDA6942F08052DA61DB6903F0C8
:100EFC0080530193019B0125214B1B6813F4807FC8
:100F0C0026D0E368012B3DD0002B53D103F1804355
:100F1C0003F504331A6A22F001021A621A6A22F0EB
:100F2C0004021A6233E0154B0022C3F88024FFF749
:100F3C00C9FE0546104B5B6A13F0020FC7D0FFF7D2
:100F4C00C1FE401B0228F5D90320D2E00025D3E7CF
:100F5C000B4A136843F480731360FFF7B3FE064625
:100F6C00074B1B6813F4807FCBD1FFF7ABFE801BC4
:100F7C006428F5D90320BCE0001002400000424276
:100F8C00007000405F4A136A43F001031362E36888
:100F9C0033B3FFF797FE06465A4B1B6A13F0020F4A
:100FAC002FD1FFF78FFE801B41F288339842F3D983
:100FBC0003209EE0052B09D0524B1A6A22F0010245
:100FCC001A621A6A22F004021A62E0E74D4B1A6A9E
:100FDC0042F004021A621A6A42F001021A62D6E75F
:100FEC00FFF770FE0646474B1B6A13F0020F08D042
:100FFC00FFF768FE801B41F288339842F3D9032037
:10100C0077E0E5B9E369002B72D03E4A526802F0F2
:10101C000C02082A56D0022B17D03B4B00221A6622
:10102C00FFF750FE0446374B1B6813F0007F47D088
:10103C00FFF748FE001B0228F5D9032059E0314A7E
:10104C00D36923F08053D361DCE72F4B00221A665F
:10105C00FFF738FE05462B4B1B6813F0007F06D0BC
:10106C00FFF730FE401B0228F5D9032041E0236A2C
:10107C00B3F5803F1AD023494B6823F47413226ACA
:10108C00606A024313434B601F4B01221A66FFF741
:10109C0019FE04461B4B1B6813F0007F0ED1FFF7A3
:1010AC0011FE001B0228F5D9032022E0154A5368D3
:1010BC0023F40033A1680B435360DCE7002018E0F5
:1010CC00002016E0012B16D00E4B5B6803F4803128
:1010DC00226A914211D103F47013626A93420ED1C9
:1010EC00002006E001207047012002E0012000E012
:1010FC00002002B070BD0120FBE70120F9E70120C0
:10110C00F7E700BF001002400000424286B0174BC8
:10111C000FCB0DF1180C0CE90F0040F20123ADF8C8
:10112C000430134B5B6803F00C02082A02D0114800
:10113C0006B07047C3F3834218326A4412F8100C9D
:10114C0013F4803F0DD00A4B5B68C3F34043183354
:10115C006B4413F8143C074A02FB00F0B0FBF3F0AD
:10116C00E6E7054B03FB00F0E2E700BFEC160008D6
:10117C000010024000127A0000093D00002800F027
:10118C00A08070B50D460446524B1B6803F0070354
:10119C008B420BD24F4A136823F007030B431360A7
:1011AC00136803F007038B4240F08D80236813F023
:1011BC00020F17D013F0040F04D0474A536843F4BE
:1011CC00E0635360236813F0080F04D0424A53685D
:1011DC0043F460535360404A536823F0F003A16812
:1011EC000B435360236813F0010F31D06368012B5C
:1011FC0020D0022B25D0384A126812F0020F64D08E
:10120C0035494A6822F0030213434B60FFF75AFD3D
:10121C000646314B5B6803F00C036268B3EB820F3C
:10122C0016D0FFF74FFD801B41F288339842F0D95E
:10123C00032045E0284A126812F4003FE0D1012057
:10124C003EE0254A126812F0007FD9D1012037E028
:10125C00204B1B6803F00703AB420AD91D4A1368E5
:10126C0023F007032B431360136803F00703AB420F
:10127C002DD1236813F0040F06D0174A536823F4BA
:10128C00E063E1680B435360236813F0080F07D049
:10129C00114A536823F46053216943EAC103536034
:1012AC00FFF734FF0C4B5B68C3F303130B4AD35C9F
:1012BC00D8400B4B18600B4B1868FFF7BFFC002095
:1012CC0070BD012070470120FAE70120F8E70120EA
:1012DC00F6E700BF00200240001002400017000893
:1012EC00480000204400002070B582B00024A446C1
:1012FC008BE07F4DAB4210D007D97E4DAB420CD06A
:10130C0005F58035AB4208D015E0A5F58015AB424C
:10131C0003D005F57025AB4209D18B68002B00F08A
:10132C00BF80012B00F0B7804261082403E0A5F5D3
:10133C008015AB42F1D0BEF1FF0F00F2B380064630
:10134C00BEF1FF0F00F2B0804FEA8C0233680F251C
:10135C00954023EA050304FA02F2134333604B6809
:10136C0013F0805F4FD0644B9A6942F001029A618E
:10137C009B6903F001030193019B4FEA9C02951CAE
:10138C005E4B53F825600CF00305AD000F23AB400A
:10139C0026EA03065A4B984200F08C8003F58063D2
:1013AC00984200F0898003F58063984200F08080B9
:1013BC000323AB4033430232504D45F822304B6887
:1013CC0013F4803F7AD04F4A136843EA0E0313603C
:1013DC004B6813F4003F77D04A4A536843EA0E0334
:1013EC0053604B6813F4801F74D0464A936843EAE9
:1013FC000E0393604B6813F4001F71D0414AD368FD
:10140C0043EA0E03D3600CF1010C0B6833FA0CF2B7
:10141C006CD0012202FA0CF203EA020E32EA030348
:10142C00F1D14B68122B3FF664AF122B83D801A578
:10143C0055F823F0271300088D14000897140008A2
:10144C00A9140008431300084313000843130008B1
:10145C004313000843130008431300084313000808
:10146C0043130008431300084313000843130008F8
:10147C004313000843130008911400089D1400083E
:10148C00CC6858E7CC68043455E7CC68083452E78C
:10149C00CC680C344FE7026108244CE700244AE77F
:1014AC00042448E7061D4BE7ACF1080292004DE717
:1014BC0002237EE700237CE701237AE7114A1368B5
:1014CC0023EA0E03136083E70E4A536823EA0E03E4
:1014DC00536086E70B4A936823EA0E03936089E70F
:1014EC00084AD36823EA0E03D3608CE702B070BDC0
:1014FC0000002210000031100010024000000140DA
:10150C0000080140000401408368194201D0012009
:10151C007047002070470AB10161704709040161EE
:10152C007047C36801EA030221EA030141EA024160
:10153C0001617047074AD36823F4E0631B041B0C5A
:10154C00000200F4E060034343F0BF6343F4003354
:10155C00D360704700ED00E000B5194BDB68C3F3B6
:10156C000223C3F1070CBCF1040F28BF4FF0040C8D
:10157C0003F1040EBEF1060F18D9033B4FF0FF3EEA
:10158C000EFA0CFC21EA0C0199400EFA03FE22EA39
:10159C000E020A4300280BDB1201D2B200F16040AC
:1015AC0000F5614080F800235DF804FB0023E5E7BB
:1015BC0000F00F001201D2B2024B1A54F4E700BF34
:1015CC0000ED00E014ED00E0002807DB00F01F0246
:1015DC00400901239340024A42F82030704700BF73
:1015EC0000E100E00138B0F1807F0BD24FF0E02336
:1015FC005861054AF02182F82310002098610722D7
:10160C001A6170470120704700ED00E07047000040
:10161C000C480D490D4A002302E0D458C450043341
:10162C00C4188C42F9D30A4A0A4C002301E0136017
:10163C000432A242FBD3FFF7E9FF00F017F8FEF7E4
:10164C0061FE7047000000204C00002018170008B5
:10165C004C000020D8000020FEE7034602449342D1
:10166C0000D1704703F8011BF9E7000070B50026A4
:10167C000C4D0D4C641BA410A64209D100F01AF8B5
:10168C0000260A4D0A4C641BA410A64205D170BD5D
:10169C0055F8043B98470136EEE755F8043B98475C
:1016AC000136F2E710170008101700081017000891
:1016BC0014170008F8B500BFF8BC08BC9E4670476C
:0C16CC00F8B500BFF8BC08BC9E46704793
:1016D8004000790024003000190012000200780050
:1016E8000000100002030405060708090A0B0C0D88
:1016F8000E0F1010000000000000000000000000A5
:081708000102030406070809B1
:041710007501000857
:041714004D0100087B
:1017180064000000E8030000010000000100000070
:1017280001000000010000000100000001000000AD
:10173800010000000100000001000000010000009D
:1017480001000000010000002C0100002C01000035
:0C17580001000000100000000024F4005C
:040000050800161DBC
:00000001FF
